{
  "_format": "hh-sol-artifact-1",
  "contractName": "LockingContract",
  "sourceName": "contracts/c-chain/LockerContract.sol",
  "abi": [
    {
      "inputs": [
        {
          "internalType": "contract IERC20",
          "name": "_token",
          "type": "address"
        }
      ],
      "stateMutability": "nonpayable",
      "type": "constructor"
    },
    {
      "anonymous": false,
      "inputs": [
        {
          "indexed": true,
          "internalType": "address",
          "name": "from",
          "type": "address"
        },
        {
          "indexed": false,
          "internalType": "uint256",
          "name": "amount",
          "type": "uint256"
        }
      ],
      "name": "LockedTokens",
      "type": "event"
    },
    {
      "inputs": [],
      "name": "admin",
      "outputs": [
        {
          "internalType": "address",
          "name": "",
          "type": "address"
        }
      ],
      "stateMutability": "view",
      "type": "function"
    },
    {
      "inputs": [
        {
          "internalType": "uint256",
          "name": "amount",
          "type": "uint256"
        }
      ],
      "name": "lockTokens",
      "outputs": [],
      "stateMutability": "nonpayable",
      "type": "function"
    },
    {
      "inputs": [],
      "name": "token",
      "outputs": [
        {
          "internalType": "contract IERC20",
          "name": "",
          "type": "address"
        }
      ],
      "stateMutability": "view",
      "type": "function"
    }
  ],
  "bytecode": "0x608060405234801561001057600080fd5b506040516105fa3803806105fa833981810160405281019061003291906100ce565b806000806101000a81548173ffffffffffffffffffffffffffffffffffffffff021916908373ffffffffffffffffffffffffffffffffffffffff16021790555033600160006101000a81548173ffffffffffffffffffffffffffffffffffffffff021916908373ffffffffffffffffffffffffffffffffffffffff16021790555050610152565b6000815190506100c88161013b565b92915050565b6000602082840312156100e057600080fd5b60006100ee848285016100b9565b91505092915050565b60006101028261011b565b9050919050565b6000610114826100f7565b9050919050565b600073ffffffffffffffffffffffffffffffffffffffff82169050919050565b61014481610109565b811461014f57600080fd5b50565b610499806101616000396000f3fe608060405234801561001057600080fd5b50600436106100415760003560e01c80636e27d88914610046578063f851a44014610062578063fc0c546a14610080575b600080fd5b610060600480360381019061005b919061027a565b61009e565b005b61006a6101dd565b6040516100779190610310565b60405180910390f35b610088610203565b6040516100959190610362565b60405180910390f35b60008054906101000a900473ffffffffffffffffffffffffffffffffffffffff1673ffffffffffffffffffffffffffffffffffffffff166323b872dd3330846040518463ffffffff1660e01b81526004016100fb9392919061032b565b602060405180830381600087803b15801561011557600080fd5b505af1158015610129573d6000803e3d6000fd5b505050506040513d601f19601f8201168201806040525081019061014d9190610251565b61018c576040517f08c379a00000000000000000000000000000000000000000000000000000000081526004016101839061037d565b60405180910390fd5b3373ffffffffffffffffffffffffffffffffffffffff167faba75e9d686db672a426b00d4c2ff5936ed818c76db969459d39c41dbc9503f0826040516101d2919061039d565b60405180910390a250565b600160009054906101000a900473ffffffffffffffffffffffffffffffffffffffff1681565b60008054906101000a900473ffffffffffffffffffffffffffffffffffffffff1681565b60008151905061023681610435565b92915050565b60008135905061024b8161044c565b92915050565b60006020828403121561026357600080fd5b600061027184828501610227565b91505092915050565b60006020828403121561028c57600080fd5b600061029a8482850161023c565b91505092915050565b6102ac816103c9565b82525050565b6102bb81610411565b82525050565b60006102ce600f836103b8565b91507f5472616e73666572206661696c656400000000000000000000000000000000006000830152602082019050919050565b61030a81610407565b82525050565b600060208201905061032560008301846102a3565b92915050565b600060608201905061034060008301866102a3565b61034d60208301856102a3565b61035a6040830184610301565b949350505050565b600060208201905061037760008301846102b2565b92915050565b60006020820190508181036000830152610396816102c1565b9050919050565b60006020820190506103b26000830184610301565b92915050565b600082825260208201905092915050565b60006103d4826103e7565b9050919050565b60008115159050919050565b600073ffffffffffffffffffffffffffffffffffffffff82169050919050565b6000819050919050565b600061041c82610423565b9050919050565b600061042e826103e7565b9050919050565b61043e816103db565b811461044957600080fd5b50565b61045581610407565b811461046057600080fd5b5056fea26469706673582212201fa8545d141d2f21594bdc424dd91e8b761b5be871047fd4074fb0a620f29b8a64736f6c63430008000033",
  "linkReferences": {},
  "deployedLinkReferences": {}
}