{
  "_format": "hh-sol-artifact-1",
  "contractName": "MintingContract",
  "sourceName": "contracts/polygon/MintingContract.sol",
  "abi": [
    {
      "inputs": [
        {
          "internalType": "contract ExampleERC20",
          "name": "_token",
          "type": "address"
        }
      ],
      "stateMutability": "nonpayable",
      "type": "constructor"
    },
    {
      "anonymous": false,
      "inputs": [
        {
          "indexed": true,
          "internalType": "address",
          "name": "previousOwner",
          "type": "address"
        },
        {
          "indexed": true,
          "internalType": "address",
          "name": "newOwner",
          "type": "address"
        }
      ],
      "name": "OwnershipTransferred",
      "type": "event"
    },
    {
      "inputs": [],
      "name": "lockingContractAddress",
      "outputs": [
        {
          "internalType": "address",
          "name": "",
          "type": "address"
        }
      ],
      "stateMutability": "view",
      "type": "function"
    },
    {
      "inputs": [
        {
          "internalType": "address",
          "name": "to",
          "type": "address"
        },
        {
          "internalType": "uint256",
          "name": "amount",
          "type": "uint256"
        }
      ],
      "name": "mintTokens",
      "outputs": [],
      "stateMutability": "nonpayable",
      "type": "function"
    },
    {
      "inputs": [],
      "name": "owner",
      "outputs": [
        {
          "internalType": "address",
          "name": "",
          "type": "address"
        }
      ],
      "stateMutability": "view",
      "type": "function"
    },
    {
      "inputs": [],
      "name": "renounceOwnership",
      "outputs": [],
      "stateMutability": "nonpayable",
      "type": "function"
    },
    {
      "inputs": [
        {
          "internalType": "address",
          "name": "_lockingContract",
          "type": "address"
        }
      ],
      "name": "setLockingContract",
      "outputs": [],
      "stateMutability": "nonpayable",
      "type": "function"
    },
    {
      "inputs": [],
      "name": "token",
      "outputs": [
        {
          "internalType": "contract ExampleERC20",
          "name": "",
          "type": "address"
        }
      ],
      "stateMutability": "view",
      "type": "function"
    },
    {
      "inputs": [
        {
          "internalType": "address",
          "name": "newOwner",
          "type": "address"
        }
      ],
      "name": "transferOwnership",
      "outputs": [],
      "stateMutability": "nonpayable",
      "type": "function"
    }
  ],
  "bytecode": "0x608060405234801561001057600080fd5b50604051610bc9380380610bc983398181016040528101906100329190610176565b61004e61004361009560201b60201c565b61009d60201b60201c565b80600160006101000a81548173ffffffffffffffffffffffffffffffffffffffff021916908373ffffffffffffffffffffffffffffffffffffffff160217905550506101fa565b600033905090565b60008060009054906101000a900473ffffffffffffffffffffffffffffffffffffffff169050816000806101000a81548173ffffffffffffffffffffffffffffffffffffffff021916908373ffffffffffffffffffffffffffffffffffffffff1602179055508173ffffffffffffffffffffffffffffffffffffffff168173ffffffffffffffffffffffffffffffffffffffff167f8be0079c531659141344cd1fd0a4f28419497f9722a3daafe3b4186f6b6457e060405160405180910390a35050565b600081519050610170816101e3565b92915050565b60006020828403121561018857600080fd5b600061019684828501610161565b91505092915050565b60006101aa826101c3565b9050919050565b60006101bc8261019f565b9050919050565b600073ffffffffffffffffffffffffffffffffffffffff82169050919050565b6101ec816101b1565b81146101f757600080fd5b50565b6109c0806102096000396000f3fe608060405234801561001057600080fd5b506004361061007d5760003560e01c80638da5cb5b1161005b5780638da5cb5b146100c6578063f0dda65c146100e4578063f2fde38b14610100578063fc0c546a1461011c5761007d565b80631afa60541461008257806321e0117c146100a0578063715018a6146100bc575b600080fd5b61008a61013a565b6040516100979190610809565b60405180910390f35b6100ba60048036038101906100b59190610668565b610160565b005b6100c4610220565b005b6100ce6102a8565b6040516100db9190610809565b60405180910390f35b6100fe60048036038101906100f99190610691565b6102d1565b005b61011a60048036038101906101159190610668565b61043f565b005b610124610537565b604051610131919061084d565b60405180910390f35b600260009054906101000a900473ffffffffffffffffffffffffffffffffffffffff1681565b61016861055d565b73ffffffffffffffffffffffffffffffffffffffff166101866102a8565b73ffffffffffffffffffffffffffffffffffffffff16146101dc576040517f08c379a00000000000000000000000000000000000000000000000000000000081526004016101d3906108a8565b60405180910390fd5b80600260006101000a81548173ffffffffffffffffffffffffffffffffffffffff021916908373ffffffffffffffffffffffffffffffffffffffff16021790555050565b61022861055d565b73ffffffffffffffffffffffffffffffffffffffff166102466102a8565b73ffffffffffffffffffffffffffffffffffffffff161461029c576040517f08c379a0000000000000000000000000000000000000000000000000000000008152600401610293906108a8565b60405180910390fd5b6102a66000610565565b565b60008060009054906101000a900473ffffffffffffffffffffffffffffffffffffffff16905090565b6102d961055d565b73ffffffffffffffffffffffffffffffffffffffff166102f76102a8565b73ffffffffffffffffffffffffffffffffffffffff161461034d576040517f08c379a0000000000000000000000000000000000000000000000000000000008152600401610344906108a8565b60405180910390fd5b600160009054906101000a900473ffffffffffffffffffffffffffffffffffffffff1673ffffffffffffffffffffffffffffffffffffffff166340c10f1983836040518363ffffffff1660e01b81526004016103aa929190610824565b602060405180830381600087803b1580156103c457600080fd5b505af11580156103d8573d6000803e3d6000fd5b505050506040513d601f19601f820116820180604052508101906103fc91906106cd565b61043b576040517f08c379a000000000000000000000000000000000000000000000000000000000815260040161043290610888565b60405180910390fd5b5050565b61044761055d565b73ffffffffffffffffffffffffffffffffffffffff166104656102a8565b73ffffffffffffffffffffffffffffffffffffffff16146104bb576040517f08c379a00000000000000000000000000000000000000000000000000000000081526004016104b2906108a8565b60405180910390fd5b600073ffffffffffffffffffffffffffffffffffffffff168173ffffffffffffffffffffffffffffffffffffffff16141561052b576040517f08c379a000000000000000000000000000000000000000000000000000000000815260040161052290610868565b60405180910390fd5b61053481610565565b50565b600160009054906101000a900473ffffffffffffffffffffffffffffffffffffffff1681565b600033905090565b60008060009054906101000a900473ffffffffffffffffffffffffffffffffffffffff169050816000806101000a81548173ffffffffffffffffffffffffffffffffffffffff021916908373ffffffffffffffffffffffffffffffffffffffff1602179055508173ffffffffffffffffffffffffffffffffffffffff168173ffffffffffffffffffffffffffffffffffffffff167f8be0079c531659141344cd1fd0a4f28419497f9722a3daafe3b4186f6b6457e060405160405180910390a35050565b60008135905061063881610945565b92915050565b60008151905061064d8161095c565b92915050565b60008135905061066281610973565b92915050565b60006020828403121561067a57600080fd5b600061068884828501610629565b91505092915050565b600080604083850312156106a457600080fd5b60006106b285828601610629565b92505060206106c385828601610653565b9150509250929050565b6000602082840312156106df57600080fd5b60006106ed8482850161063e565b91505092915050565b6106ff816108d9565b82525050565b61070e81610921565b82525050565b60006107216026836108c8565b91507f4f776e61626c653a206e6577206f776e657220697320746865207a65726f206160008301527f64647265737300000000000000000000000000000000000000000000000000006020830152604082019050919050565b6000610787600e836108c8565b91507f4d696e74696e67206661696c65640000000000000000000000000000000000006000830152602082019050919050565b60006107c76020836108c8565b91507f4f776e61626c653a2063616c6c6572206973206e6f7420746865206f776e65726000830152602082019050919050565b61080381610917565b82525050565b600060208201905061081e60008301846106f6565b92915050565b600060408201905061083960008301856106f6565b61084660208301846107fa565b9392505050565b60006020820190506108626000830184610705565b92915050565b6000602082019050818103600083015261088181610714565b9050919050565b600060208201905081810360008301526108a18161077a565b9050919050565b600060208201905081810360008301526108c1816107ba565b9050919050565b600082825260208201905092915050565b60006108e4826108f7565b9050919050565b60008115159050919050565b600073ffffffffffffffffffffffffffffffffffffffff82169050919050565b6000819050919050565b600061092c82610933565b9050919050565b600061093e826108f7565b9050919050565b61094e816108d9565b811461095957600080fd5b50565b610965816108eb565b811461097057600080fd5b50565b61097c81610917565b811461098757600080fd5b5056fea2646970667358221220c710d21d4ae230e94486700003ccb718a4842a6db04e00379fd338d51d24093564736f6c63430008000033",
  "linkReferences": {},
  "deployedLinkReferences": {}
}